:10000E001203B21200038F2EE52EB4010CE52D70F3
:10001E00047F0180027F008F2DE52EB40207E4F5E8
:10002E002BF52AF52CE52E64037033E52BFD7C00B1
:10003E00E4FF1203347F057E001203C9E52AFD7C1E
:10004E00007F011203347F057E001203C9E52CFDEB
:10005E007C007F021203347F057E001203C9E52E59
:10006E00B40415E4FF1202B48F2B7F011202B48F79
:10007E002A7F021202B48F2CE52B75F00A84FD7CC8
:10008E00007F0112040BE52B75F00A84E5F0FD7C70
:10009E00007F0212040B7D117C007F0312040BE51E
:1000AE002A75F00A84FD7C007F0412040BE52A7584
:1000BE00F00A84E5F0FD7C007F0512040B7D117CB7
:1000CE00007F0612040BE52C75F00A84FD7C007F80
:1000DE000712040BE52C75F00A84E5F0FD7C007F19
:0700EE000812040B020011CF
:10030D00E52D6022052CE52CC394644019E4F52CF1
:10031D00052AE52A943C400EE4F52A052BE52B949D
:07032D003C4003E4F52B2224
:03000B000200F5FB
:1000F500C0E0C0F0C083C082C0D075D000C000C0D1
:0D01050001C002C003C004C005C006C00751
:10011200758CFC758A180525E52570020524C394A3
:1001220014E5249400400975240075250012027319
:100132000527E52770020526C39402E526940040B0
:10014200097526007527001203970529E529700213
:100152000528C3940AE528940040097528007529EA
:040162000012030D77
:10016600D007D006D005D004D003D002D001D000ED
:0B017600D0D0D082D083D0F0D0E03297
:1003C900EF1FAC0670011E4C600B007D027CC7DC80
:0503D900FEDDFC80EBDD
:0103DE0022FC
:07000300AF32E4F531F532E4
:01000A0022D3
:1003DF00E4FF20B1010F20B0027F0220B2027F03A1
:0503EF0020B3027F04B1
:0103F40022E6
:10027300852F301203DF8F2FE530B40109E52F708E
:1002830005F531753201E530B40209E52F7005F546
:1002930031753202E530B40309E52F7005F5317588
:1002A3003203E530B40409E52F7005F531753204E6
:0102B3002228
:10035800090900101010101010101012123F065B3F
:100368004F666D7D077F6F777C395E79710040013C
:0203780008017A
:09040B00AE0574092FF8A60622C3
:10020D00E4F580EF14B40800505490022575F00306
:10021D00A4C58325F0C5837302023D02024102028B
:10022D004502024902024D02025502025D020265BB
:10023D00D2A4800ED2A48012D2A48016D2A4801A89
:10024D00C2A4D2A3D2A28016C2A4D2A3C2A2800EEF
:10025D00C2A4C2A3D2A28006C2A4C2A3C2A2741217
:06026D002DF8E6F58022E9
:1003970074092508F8E6FD7C00AF0812020D050870
:0A03A700E508D3940840037508012F
:0103B1002229
:1003B2005389F0438901C28DD28C758CFC758A18E1
:0703C200D2A9D2AFC2B9229B
:100334008F338C348D351204147FA01202E412031F
:10034400F5AF331202E41203F5AF351202E41203DF
:04035400F502041D8D
:0202B4008F3386
:1002B6001204147FA01202E41203F5AF331202E413
:1002C6001203F51204147FA11202E41203F51203BD
:0D02D6007B8F347F0112040112041DAF3430
:0102E30022F8
:09041400D2A0D2A1C2A0C2A12213
:07041D00C2A0D2A1D2A0226F
:0202E400AD0764
:1002E600E4FB74807E00A803088006CEA2E713CE46
:1002F60013D8F8FFEDF582EF558224FF92A0D2A124
:06030600C2A10BBB08DCE4
:01030C0022CE
:10037B00E4FFFED2A130A00D7480A806088002C352
:0B038B0013D8FC4207C2A10EBE08E818
:010396002244
:0A040100EF24FF92A0D2A1C2A122B5
:0B03F500D2A0D2A1A2A0E433FFC2A15D
:0104000022D9
:0300000002018179
:0C018100787FE4F6D8FD7581350201C8D6
:10018D0002000EE493A3F8E493A34003F68001F27A
:10019D0008DFF48029E493A3F85407240CC8C33373
:1001AD00C4540F4420C8834004F456800146F6DF42
:1001BD00E4800B0102040810204080900358E47E77
:1001CD00019360BCA3FF543F30E509541FFEE49337
:1001DD00A360010ECF54C025E060A840B8E493A3FE
:1001ED00FAE493A3F8E493A3C8C582C8CAC583CA29
:1001FD00F0A3C8C582C8CAC583CADFE9DEE780BEE1
:01037A000082
:00000001FF
