:10015E001201B91200FD8F1AE51A64017023051CF5
:10016E00531C03E51C7002F519E51CB40103751947
:10017E003CE51CB4020375194BE51CB40303751959
:0D018E0064E51CFD7C007F0112009A80C614
:03000B0002019B54
:10019B00C0E0C0D0758CFF758AF7051BE51BC395B6
:0E01AB00195004D2908002C290D0D0D0E03221
:1001D000EF1FAC0670011E4C600B007D027CC7DC7B
:0501E000FEDDFC80EBD8
:0101E50022F7
:1000FD00E4F51D20B1137F14FE1201D030B1FD7F48
:10010D00147E001201D0751D0120B0147F147E00E5
:10011D001201D030B0FD7F147E001201D0751D028A
:10012D0020B2147F147E001201D030B2FD7F147EF8
:10013D00001201D0751D0320B3147F147E0012012F
:10014D00D030B3FD7F147E001201D0751D04AF1D9C
:01015D00227F
:1001E60011083F065B4F666D7D077F6F777C395E32
:0301F6007971001C
:10009A00EF14B4080050549000AF75F003A4C58360
:1000AA0025F0C583730200C70200CB0200CF02000D
:1000BA00D30200D70200DF0200E70200EFD2A480D9
:1000CA000ED2A48012D2A48016D2A4801AC2A4D2BC
:1000DA00A3D2A28016C2A4D2A3C2A2800EC2A4C274
:1000EA00A3D2A28006C2A4C2A3C2A274082DF8E6B3
:0300FA00F580226C
:1001B9005389F0438901C28DD28C758CFF758AF7FA
:0701C900D2A9D2AFC2B92296
:0300000002000EED
:0C000E00787FE4F6D8FD75811D020055D6
:10001A0002015EE493A3F8E493A34003F68001F29D
:10002A0008DFF48029E493A3F85407240CC8C333E7
:10003A00C4540F4420C8834004F456800146F6DFB6
:10004A00E4800B01020408102040809001E6E47E5F
:10005A00019360BCA3FF543F30E509541FFEE493AB
:10006A00A360010ECF54C025E060A840B8E493A372
:10007A00FAE493A3F8E493A3C8C582C8CAC583CA9D
:10008A00F0A3C8C582C8CAC583CADFE9DEE780BE55
:0101F9000005
:00000001FF
