:10097E00543A0054483A00544C3A004F563A480004
:0A098E004F563A4C002020202000B4
:10046D00E4FF1208018F107F011208018F0AD3E5F6
:10047D0010648094FD5016C3E50A64809449400DC4
:10048D00D3E50A6480F8E510648098500675101461
:10049D00750A0F120A437FF47E011209C8120A2051
:1004AD007BFF7A09797E7D017F011208AA7BFF7A95
:1004BD000979817D017F021208AA7BFF7A0979856E
:1004CD007D097F021208AAE510FB3395E0FA751934
:1004DD00037D047F02120723E50AFB3395E0FA75CD
:1004ED0019037D0C7F021207231209B11200038F2D
:1004FD000F120A431208318F0E8E0D8D0C8C0BE4EA
:10050D00FFFEFDFCAB0EAA0DA90CA80B1201B450F9
:10051D001E7B2D7D037F01120A72AF0EAE0DAD0C49
:10052D00AC0B12022D8F148E138D128C1180157B36
:10053D002B7D037F01120A72850E14850D13850C18
:10054D0012850B11AF14AE13AD12AC1112027CABB0
:10055D0007AA067519037D047F0112090C7B2E7DF8
:10056D00077F01120A72E4FFFE7DC87C42AB14AA1C
:10057D0013A912A81112000E12027CE47B64FAF981
:10058D00F81203CD7519027D087F0112090CE50FD4
:10059D00700302063AB4010E0510D3E51064809481
:1005AD00FD400375107DE50FB402111510D3E50A5A
:1005BD006480F8E51064809850020510E50FB403CF
:1005CD0011050AD3E50A6480F8E51064809850029D
:1005DD00150AE50FB4040E150AC3E50A64809449A3
:1005ED005003750AC9E510FB3395E0FA7519037DC3
:1005FD00047F02120723E50AFB3395E0FA75190310
:10060D007D0C7F02120723E510FD3395E0FCE4FF1E
:10061D001208867F057E001209C8E50AFD3395E0B4
:10062D00FC7F011208867F057E001209C8AC10EC14
:10063D00120248AB0EAA0DA90CA80B1201B4600A48
:10064D0040087BFF7A0979898019AC0AEC120248BF
:10065D00AB0EAA0DA90CA80B1201B450107BFF7A9A
:10066D0009798E7D0D7F011208AA0204F97BFF7AAC
:0D067D000979937D0D7F011208AA0204F98E
:03000B0002068A60
:10068A00C0E0C0F0C083C082C0D075D000C000C036
:0D069A0001C002C003C004C005C006C007B7
:1006A700758CFC758A180509E50970020508C3945D
:1006B70014E508940040097508007509001206E260
:1006C700D007D006D005D004D003D002D001D00087
:0B06D700D0D0D082D083D0F0D0E03231
:1009C800EF1FAC0670011E4C600B007D027CC7DC7B
:0509D800FEDDFC80EBD8
:0109DD0022F7
:0D0A43001208CD7FCC1209987F440209985B
:100831001208CD7FCC1209987FBE1209981209299E
:100841008F15120929EFFEE515FFFDAC06EC12022A
:0B08510043E4FBFA79807841120117A4
:01085C002279
:060A3400C2A58F80D2A7CD
:080A3A007F027EEFDEFEDFFC0F
:010A42002291
:0A0A6800C2A6120A34C2A7020A3A1D
:1008EE00CFCDCFCECCCE12033C7C007D0A12033C82
:0408FE00ED2430FFB6
:0A090200D2A6120A34C2A7020A3A74
:1009DE00AE07BE0104ED148006BE0209ED243F44AD
:0609EE0080FF120A6822DE
:100A20007F38120A687F0C120A687F06120A687FF4
:040A300001020A684D
:0A0A7200AC031209DEAF0402090212
:0608AA008B158A16891768
:1008B0001209DEE4FDAB15AA16A9178D8275830017
:0C08C0001202FDFF60061209020D80E923
:0108CC002209
:0C07CE007F0AEA24FFFDE434FFFC7E00FB
:0807DA008E1C8F1D8C1E8D1F6B
:1007E2007F017E00E4FBEBC3951FE51E6480F87475
:0E07F2008098500AAC1CAD1D12032A0B80E843
:0108000022D5
:04090C008A178B18A3
:100910001209DEAA19EAD39400400D1207CEAC17D3
:08092000AD181208EE1A80ED7B
:0109280022AC
:100723001209DEC3EA64809480400B7F2B12090216
:100733008A1A8B1B800E7F2D120902C3E49BF51BC3
:10074300E49AF51AAA19EAD39400400D1207CEAC25
:090753001AAD1B1208EE1A80ED2C
:01075C00227A
:04075D008A228B233E
:100761001209DEAA24EAD3940040297F101207D08F
:10077100AC22AD23CFCDCFCECCCE12033CEF540F64
:10078100FEC3940AEE5004243080022437FF12097C
:04079100021A80D1F7
:010795002241
:040796008A278B28FB
:10079A001209DEAA29EAD394004028EA24FFFDE4DC
:1007AA0034FFFC7F027E001207DAAC27AD28CFCDDA
:1007BA00CFCECCCE12033CEF54012430FF120902F3
:0307CA001A80D2C0
:0107CD002209
:1008CD00C2AFD2B7C2B7007FE3DFFED2B7007F1D44
:1008DD00DFFEA2B7E433FE007FE3DFFED2AFAF064B
:0108ED0022E8
:1009F400C2AFC2B77E04DEFEEF24FF92B77E16DEDE
:050A0400FED2B7D2AFE5
:010A090022CA
:10094600C2AFC2B77F02DFFED2B77F02DFFEA2B719
:0B095600E433FE7F16DFFED2AFAF06D9
:010961002273
:02099800AD07A9
:10099A00E4FC7401A804088002C333D8FC5DFF128A
:0609AA0009F40CBC08EC8E
:0109B0002224
:10092900E4FDFC120946EF600D7401A80408800279
:0C093900C333D8FC42050CBC08E9AF0534
:01094500228F
:100886008F158C168D17120A867FA012085D120A24
:1008960050AF1512085D120A50AF1712085D120A02
:0408A60050020A8F63
:020801008F1551
:10080300120A867FA012085D120A50AF1512085D06
:10081300120A50120A867FA112085D120A501209A9
:0D082300628F167F01120A7C120A8FAF1639
:0108300022A5
:090A8600D2A0D2A1C2A0C2A1229B
:070A8F00C2A0D2A1D2A022F7
:02085D00AD07E5
:10085F00E4FB74807E00A803088006CEA2E713CEC7
:10086F0013D8F8FFEDF582EF558224FF92A0D2A1A5
:06087F00C2A10BBB08DC66
:010885002250
:10096200E4FFFED2A130A00D7480A806088002C365
:0B09720013D8FC4207C2A10EBE08E82B
:01097D002257
:0A0A7C00EF24FF92A0D2A1C2A12234
:0B0A5000D2A0D2A1A2A0E433FFC2A1FB
:010A5B002278
:07000300AF2DE4F52CF52DF3
:01000A0022D3
:100A0A00E4FF20B1010F20B0027F0220B2027F036F
:050A1A0020B3027F047F
:010A1F0022B4
:1006E200852A2B120A0A8F2AE52BB40109E52A7002
:1006F20005F52C752D01E52BB40209E52A7005F5E7
:100702002C752D02E52BB40309E52A7005F52C752D
:100712002D03E52BB40409E52A7005F52C752D048B
:0107220022B4
:1009B1005389F0438901C28DD28C758CFC758A18DC
:0709C100D2A9D2AFC2B92296
:10000E00EC4D6011E8497017ED33EC3304600DE4EC
:10001E00FCFFFEFD22E933E8330470F80202E81219
:10002E0002B358046009E4CC24815006285009021A
:10003E0002F22840030202EFC0E0EB4A7044B9809E
:10004E0006D0E0FB0202DEEF4E701CBD8008EBFF17
:10005E00EAFEE9FD80EBE98DF0A4FEE5F00200F783
:10006E00E9CDF9EAFEEBFFEF89F0A4FCE5F0CE89CD
:10007E00F0A42EFFE435F0CD89F0A42DFEE435F08A
:10008E008067EF4E7005BD80D780C3EF8BF0A4ACB8
:10009E00F0EE8BF0A42CFCE435F0F8EF8AF0A42CF3
:1000AE00E5F038FCE433CB8DF0A42CFCE5F03BF806
:1000BE00EE8AF0A42CFCE5F038F8E433CF89F0A4F6
:1000CE002CFCE5F038CF3400CE89F0A42FFFE5F0FC
:1000DE003EFEE433C98DF0A42EFEE5F039CD8AF054
:1000EE00A42FFFE5F03EFEE43DFD33D0E0FB5007CC
:1000FE000BBB000F0202F2EC2CFCEF33FFEE33FED3
:06010E00ED33FD0202CA00
:100114000202F2EC5D046005E8590470030202E88F
:100124001202B3580460F6EC4860F2EC7004FDFE71
:10013400FF22C860DB2481C85009C39860025006BE
:100144000202EF9850CAF582E9294B4A7005AB8246
:100154000202DE75F0007C1A7880C3EF9BEE9AED04
:1001640099400DC3EF9BFFEE9AFEED99FDE842F036
:10017400DC23ACF0D0E0FFD0E0FED0E0FDAB822089
:10018400E7101BEB60BAEC2CFCEF33FFEE33FEED13
:1001940033FD0202CAE803F830E705C0F075F00049
:1001A400EF2FFFEE33FEED33FD40B830E7C280AAF7
:1001B40074F8CC6480CCC86480C8F58204604FC3F2
:1001C400EB9FF5F0EA9E42F0E99D42F0E89C45F091
:1001D400603C501DE5825FFFE582D313CB5BCBF41B
:1001E4002B5582FB50280ABA002409B90020088044
:1001F4001DE5825BFBE582D313CF5FCFF4C3132FDE
:100204005582FF50090EBE00050DBD00010CC3EB65
:100214009FF5F0EA9E42F0E99D42F0E89C45F060CB
:0902240007CC4820E701B3EC22ED
:10022D00ED33EC33600A047003BD8004ECB2E7FCDF
:01023D00229E
:10023E0075F020800E75F010800575F0087D007E3B
:10024E00007F003392D530D50312045FEC3340109B
:10025E00EF33FFEE33FEED33FDEC33FCD5F0ED2244
:0E026E00E5F0247EA2D513CC92E7CDCEFF2280
:10027C00EDD2E7CD33EC3392D524814006E4FFFE7A
:10028C00FDFC22FCE4CFCECDCC24E0501174FF80D9
:10029C00EDC3CC13CCCD13CDCE13CECF13CF047076
:0702AC00F030D5DE02045F13
:1002B300E9D2E7C933E833F892D5EDD2E7CD33EC91
:0702C30033FC5002B2D5220A
:1002CA00EC30E7100FBF000C0EBE00080DBD000495
:1002DA000BEB6014A2D5EB13FCED92E7FD2274FF41
:1002EA00FCFDFEFF22E480F8A2D574FF13FC7D809A
:0302FA00E480EFAE
:03000000020A5C95
:0C0A5C00787FE4F6D8FD75812D02046D52
:1002FD00BB010CE58229F582E5833AF583E02250B6
:10030D0006E92582F8E622BBFE06E92582F8E222FF
:0D031D00E58229F582E5833AF583E4932219
:10032A00EF8DF0A4A8F0CF8CF0A428CE8DF0A42EE7
:02033A00FE22A1
:10033C00BC000BBE0029EF8DF084FFADF022E4CCA5
:10034C00F875F008EF2FFFEE33FEEC33FCEE9DEC6E
:10035C00984005FCEE9DFE0FD5F0E9E4CEFD22EDB4
:10036C00F8F5F0EE8420D21CFEADF075F008EF2FFE
:10037C00FFED33FD4007985006D5F0F222C398FDEF
:05038C000FD5F0EA228C
:1003910075F008758200EF2FFFEE33FECD33CDCC23
:1003A10033CCC58233C5829BED9AEC99E5829840A6
:1003B1000CF582EE9BFEED9AFDEC99FC0FD5F0D683
:1003C100E4CEFBE4CDFAE4CCF9A88222B800C1B9AD
:1003D1000059BA002DEC8BF084CFCECDFCE5F0CBEB
:1003E100F97818EF2FFFEE33FEED33FDEC33FCEB24
:1003F10033FB10D703994004EB99FB0FD8E5E4F9DF
:10040100FA227818EF2FFFEE33FEED33FDEC33FCCB
:10041100C933C910D7059BE99A4007EC9BFCE99ABF
:10042100F90FD8E0E4C9FAE4CCFB2275F010EF2F04
:10043100FFEE33FEED33FDCC33CCC833C810D70704
:100441009BEC9AE899400AED9BFDEC9AFCE899F83F
:0E0451000FD5F0DAE4CDFBE4CCFAE4C8F922D2
:0E045F00C3E49FFFE49EFEE49DFDE49CFC22AE
:00000001FF
