:0D023B0048656C6C6F20576F726C64210079
:100198001202077BFF7A02793B7D0F7F01120175FE
:0E01A8007F181202547FE87E031201F180F2EC
:06021B00C2A58F80D2A7EE
:09022100007F027EC7DEFEDFFC57
:01022A0022B1
:0A025400C2A612021BC2A70202217B
:1001B600CFCDCFCECCCE1200427C007D0A120042BB
:0401C600ED2430FFF5
:0A01CA00D2A612021BC2A7020221F6
:100207007F381202547F0C1202547F061202547F69
:04021700010202548A
:10022B00EDBF0103148002243F4480FF12025422CD
:0A025E00AC0312022BAF040201CA28
:060175008B228A2389247D
:10017B0012022BE4FDAB22AA23A9248D82758300E6
:0C018B00120003FF60061201CA0D80E99B
:010197002245
:0C0142007F0AEA24FFFDE434FFFC7E008D
:08014E008E1E8F1F8C208D21F5
:100156007F017E00E4FBEBC39521E5206480F87403
:0E0166008098500AAC1EAD1F1200300B80E8CE
:010174002268
:0401D4008A118B12EF
:1001D80012022BAA13EAD39400400D120142AC116B
:0801E800AD121201B61A80ED00
:0101F00022EC
:1000970012022BC3EA64809480400B7F2B1201CAA3
:1000A7008A0D8B0E800E7F2D1201CAC3E49BF50EBD
:1000B700E49AF50DAA0CEAD39400400D120142AC64
:0900C7000DAD0E1201B61A80ED18
:0100D000220D
:0400D1008A168B17E9
:1000D50012022BAA18EAD3940040297F101201447A
:1000E500AC16AD17CFCDCFCECCCE120042EF540F0C
:1000F500FEC3940AEE5004243080022437FF120117
:04010500CA1A80D1C1
:0101090022D3
:04010A008A1B8B1CA5
:10010E0012022BAA1DEAD394004028EA24FFFDE434
:10011E0034FFFC7F027E0012014EAC1BAD1CCFCD16
:10012E00CFCECCCE120042EF54012430FF1201CAC2
:03013E001A80D252
:01014100229B
:1001F100EF1FAC0670011E4C600B007D027CC7DC5A
:05020100FEDDFC80EBB6
:0102060022D5
:03000000020248B1
:0C024800787FE4F6D8FD7581240201984F
:10000300BB010CE58229F582E5833AF583E02250B2
:1000130006E92582F8E622BBFE06E92582F8E222FC
:0D002300E58229F582E5833AF583E4932216
:10003000EF8DF0A4A8F0CF8CF0A428CE8DF0A42EE4
:02004000FE229E
:10004200BC000BBE0029EF8DF084FFADF022E4CCA2
:10005200F875F008EF2FFFEE33FEEC33FCEE9DEC6B
:10006200984005FCEE9DFE0FD5F0E9E4CEFD22EDB1
:10007200F8F5F0EE8420D21CFEADF075F008EF2FFB
:10008200FFED33FD4007985006D5F0F222C398FDEC
:050092000FD5F0EA2289
:00000001FF
